:020000040800F2
:10000000E81D002049010008AD0A0008410700086A
:100010006D090008F50200085719000800000000EB
:10002000000000000000000000000000171200089F
:10003000F902000800000000C90F00082913000899
:100040006301000863010008630100086301000800
:1000500063010008630100086301000863010008F0
:1000600063010008630100086301000863010008E0
:1000700063010008630100086301000863010008D0
:1000800063010008630100086301000863010008C0
:1000900063010008630100086301000863010008B0
:1000A00063010008630100086301000863010008A0
:1000B0008D130008B51400084D15000863010008F1
:1000C0006301000863010008630100086301000880
:1000D0006301000859170008E117000863010008D0
:1000E0006301000863010008630100086301000860
:1000F0006301000863010008630100086301000850
:1001000063010008630100086D1500086301000821
:10011000630100086301000863010008630100082F
:10012000630100086301000863010008630100081F
:10013000DFF810D000F05EF800480047692700089B
:10014000AFF30080E81D00200648804706480047BE
:10015000FEE7FEE7FEE7FEE7FEE7FEE7FEE7FEE777
:10016000FEE7FEE72D1300083101000840EA010315
:100170009B0703D009E008C9121F08C0042AFAD25D
:1001800003E011F8013B00F8013B521EF9D2704721
:100190002DE9F05F0546002092469B4688460646BC
:1001A000814640241BE0284641464746224600F04F
:1001B00042F853465A46C01A914110D31146184688
:1001C000224600F029F82D1A67EB01084F46224617
:1001D0000120002100F020F817EB00094E41201EFD
:1001E000A4F10104DFDC484631462A464346BDE817
:1001F000F09F0000064C074D06E0E06840F0010368
:1002000094E8070098471034AC42F6D3FFF794FF08
:100210000449000824490008202A04DB203A00FA97
:1002200002F1002070479140C2F1200320FA03F34D
:10023000194390407047202A04DB203A21FA02F04B
:100240000021704721FA02F3D040C2F12002914010
:1002500008431946704770B58C1810F8015B15F00B
:10026000070301D110F8013B2A1106D110F8012B28
:1002700003E010F8016B01F8016B5B1EF9D12B074D
:1002800005D40023521E0DD401F8013BFAE710F803
:10029000013BCB1A921C03E013F8015B01F8015BF0
:1002A000521EF9D5A142D8D3002070BD10B501F07F
:1002B000A3FE4FF4A06000F033FC4FF4E13002F0F5
:1002C000A3FD00F00DFB00F03DFA00F03DF941F612
:1002D0001F4142F20F7001F0BFF841F61F41642048
:1002E00001F004F900F082FC01200149087010BD02
:1002F000A008002000BFFEE77047000030B50446AC
:1003000004254FF4302000F06FF80546042D17D176
:100310000C48006940F002000A490861084644613F
:10032000006940F0400008614FF4302000F05CF8B4
:1003300005460448006941F6FD710840014908611D
:10034000284630BD0020024004200B49C96801F056
:10035000010109B101200EE00749C96801F004015B
:1003600009B1022007E00449C96801F0100109B190
:10037000032000E004207047002002400348006989
:1003800040F08000014908617047000000200240F1
:1003900070B504460D460426F00200F025F8064626
:1003A000042E11D10948006940F001000749086195
:1003B0002580F00200F018F806460448006941F66E
:1003C000FE71084001490861304670BD00200240BE
:1003D0000248034948600348486070472301674565
:1003E00000200240AB89EFCD00B502460423FFF7A1
:1003F000ABFF034603E0FFF7A7FF0346521E012BA6
:1004000001D1002AF7D102B90523184600BD00002A
:1004100010B539484078012804D0022819D00328A3
:100420004FD137E002F032FA34A20021102000F060
:1004300075FD34A20221102000F070FD33A20021CE
:10044000522000F06BFD33A20221522000F066FD25
:1004500037E001F03FFE31A20021102000F05EFDE8
:100460002FA20221102000F059FD2EA204211020FD
:1004700000F054FD2CA20021522000F04FFD2BA2D1
:100480000221522000F04AFD29A20421522000F04E
:1004900045FD16E027A20021102000F03FFD26A216
:1004A0000221102000F03AFD24A20021502000F08B
:1004B00035FD23A20221502000F030FD02F0D4FAD5
:1004C00000BF00BF11220621042000F079FC122297
:1004D0000621142000F074FC13220621642000F091
:1004E0006FFC14220621742000F06AFC15A206217C
:1004F000362000F013FD10BDA00800204C50313A0A
:10050000000000004C50323A000000004C50333ADA
:10051000000000004750203A0000000053313A002C
:1005200053323A0053333A0053343A0053353A00C9
:1005300053363A0054313A0054323A0054333A00B8
:1005400054343A006D696E0008B50121042000F0B2
:100550004DFD4FF41060ADF8000003208DF802004F
:1005600010208DF803006946244800F051F801215D
:10057000202000F03BFD4FF4AA40ADF8000003201E
:100580008DF8020010208DF8030069461C4800F029
:100590003FF80121402000F029FD4AF68020ADF807
:1005A000000003208DF8020010208DF8030069463A
:1005B000144800F02DF80121082000F017FD4FF439
:1005C0000060ADF8000003208DF8020010208DF8C7
:1005D000030069460C4800F01BF80121080200F0F6
:1005E00005FD4FF4A040ADF8000048208DF8030051
:1005F0006946064800F00CF808BD000000080140FC
:100600000014014000180140000C0140002001408E
:100610002DE9F04102460025002600200023002499
:10062000002791F803C00CF00F0591F803C00CF0FF
:10063000100CBCF1000F03D091F802C04CEA050584
:1006400091F800C0BCF1000F31D0146800202BE0FD
:100650004FF0010C0CFA00F3B1F800C00CEA0306ED
:100660009E4220D183004FF00F0C0CFA03F7BC43DD
:1006700005FA03FC4CEA040491F803C0BCF1280F0E
:1006800006D14FF0010C0CFA00FCC2F814C00AE0CD
:1006900091F803C0BCF1480F05D14FF0010C0CFAE2
:1006A00000FCC2F810C0401C0828D1D31460B1F877
:1006B00000C0BCF1FF0F34DD546800202EE000F1D3
:1006C000080C4FF0010808FA0CF3B1F800C00CEA6E
:1006D00003069E4221D183004FF00F0C0CFA03F762
:1006E000BC4305FA03FC4CEA040491F803C0BCF1D6
:1006F000280F05D100F1080C08FA0CF8C2F8148094
:1007000091F803C0BCF1480F07D100F1080C4FF07D
:10071000010808FA0CF8C2F81080401C0828CED353
:100720005460BDE8F0810246002093680B400BB195
:10073000012000E00020704741617047016170476F
:1007400000BFFEE708B50121080200F04FFC0120C0
:10075000ADF8000048208DF8030069461F48FFF7F8
:1007600057FF0121042000F041FC0320ADF80000F8
:1007700048208DF8030069461948FFF749FF012119
:10078000802000F033FC4FF42840ADF80000282012
:100790008DF8030069461348FFF73AFF0121402016
:1007A00000F024FC4FF4A050ADF8000028208DF894
:1007B000030069460C48FFF72BFF0121082000F0D9
:1007C00015FC4FF48060ADF8000028208DF8030080
:1007D00069460648FFF71CFF08BD000000200140E5
:1007E00000080140001C014000180140000C0140BD
:1007F00010B501203649087008460078002864D0FA
:100800004FF400513348FFF78EFF012822D04FF4F8
:1008100000613048FFF787FF01281BD04FF480614B
:100820002D48FFF780FF012814D04FF480512A484B
:10083000FFF779FF01280DD04FF480612748FFF7BB
:1008400072FF012806D04FF400412248FFF76BFFEA
:1008500001283AD1642001F0F1FB00201C49087006
:100860004FF400511B48FFF75EFF012800D110BD77
:100870004FF400611748FFF756FF012801D102200D
:10088000F5E74FF480611448FFF74DFF012801D1CF
:100890000320ECE74FF480510F48FFF744FF012895
:1008A00001D10420E3E74FF480610C48FFF73BFFE0
:1008B000012801D10520DAE74FF400410548FFF790
:1008C00032FF012801D10620D1E70020CFE7000048
:1008D000A3080020001C014000180140000C01404A
:1008E00008B50121802000F081FB4FF44070ADF885
:1008F000000010208DF8030003208DF802006946E7
:100900000448FFF785FE4FF440710248FFF716FFD9
:1009100008BD0000001C014010B50022012110207C
:1009200000F04EFA01221146202000F049FA02227E
:100930000121302000F044FA03220121402000F080
:100940003FFA04220121502000F03AFA0522012149
:10095000602000F035FA03A20421322000F0DEFA14
:1009600010BD000056302E310000000000BFFEE731
:1009700008B54B48007828B1494890F9000010F1BB
:10098000030F0BD1012047494870474802230C222E
:1009900000210090084600F0EDF82AE04048007879
:1009A000012805D03E4890F9000010F1020F0BD14C
:1009B00002203C4948703C4804230C22022100904C
:1009C000002000F0D7F814E035480078022805D060
:1009D000334890F90000B0F1FF3F0AD103203149BC
:1009E0004870314806230C2204210090002000F0BA
:1009F000C1F806220021102000F0E2F907220021B0
:100A0000202000F0DDF908220021302000F0D8F984
:100A100009220021402000F0D3F9062202211020F3
:100A200000F0CEF907220221202000F0C9F90A22A5
:100A30000221302000F0C4F90B220221402000F0F6
:100A4000BFF90C220221502000F0BAF90D22042136
:100A5000102000F0B5F90E220421202000F0B0F99A
:100A60000F220421302000F0ABF910220421402095
:100A700000F0A6F911220621042000F0A1F91222AB
:100A80000621142000F09CF913220621642000F0B6
:100A900097F914220621742000F092F908BD000095
:100AA00098080020A0080020480800207047000097
:100AB00070B5002100230F22C47804B3154C2468BC
:100AC00004F4E064C4F5E064210AC1F10403CA40FF
:100AD000447804FA03F184781440214309010E4C50
:100AE0000678A155047804F01F050124AC40057870
:100AF0006D11AD0005F1E025C5F8004109E004786D
:100B000004F01F050124AC40044D0678761145F829
:100B1000264070BD0CED00E000E400E080E100E064
:100B200002490143024A1160704700000000FA05C3
:100B30000CED00E070B5002419E004F1B001C8B27A
:100B4000002100F007FA0021084600F003FA002116
:100B5000102000F0FFF9002505E00121002000F041
:100B6000F9F9681CC5B2802DF7DB601CC4B2082CF3
:100B7000E3DB70BD2DE9F05F06460F4690461C464C
:100B8000DDF828A04FF0000BE11704EB5171C910FC
:100B9000A4EBC10131B92046E11704EB5171C1F357
:100BA000C70506E02046E11704EB5171C910491C46
:100BB000CDB23D4615E02946304600F0E9F8B14691
:100BC0000BE059460BF1010B1AF80100012100F06E
:100BD000C1F909F1010000F0FF09C145F1DB681C12
:100BE000C5B2A542E7DBBDE8F09F000008B50121D2
:100BF000102000F0FBF90F20ADF8000010208DF858
:100C0000030003208DF8020069465E48FFF700FDEF
:100C10000F215C48FFF792FD0121082000F0E6F962
:100C20000320ADF8000010208DF8030003208DF89C
:100C3000020069465448FFF7EBFC03215248FFF7D6
:100C40007DFD0121042000F0D1F91020ADF8000055
:100C50008DF8030003208DF8020069464B48FFF72A
:100C6000D7FC10214948FFF769FD04214548FFF7EB
:100C700065FD642001F0E2F904214248FFF75CFDC4
:100C8000C82001F0DBF904213E48FFF757FD0021A1
:100C9000AE2000F05FF90021084600F05BF900216A
:100CA000102000F057F90021402000F053F90021F6
:100CB000812000F04FF90021CF2000F04BF90021F6
:100CC000A12000F047F90021C82000F043F90021DD
:100CD000A62000F03FF90021A82000F03BF90021F8
:100CE0003F2000F037F90021D32000F033F9002134
:100CF000084600F02FF90021D52000F02BF9002143
:100D0000802000F027F90021D92000F023F90021EC
:100D1000F12000F01FF90021DA2000F01BF900217A
:100D2000122000F017F90021DB2000F013F9002158
:100D3000402000F00FF90021202000F00BF90021E5
:100D4000022000F007F900218D2000F003F90021B6
:100D5000142000F0FFF80021A42000F0FBF800218F
:100D6000A62000F0F7F80021AF2000F0F3F80021F2
:100D7000AF2000F0EFF8FFF7DDFE0021084600F09D
:100D800007F808BD00100140000C014000080140B8
:100D900070B504460D4605F1B001C8B2002100F05F
:100DA000D9F8102141EA1410002100F0D3F804F022
:100DB0000F0141F00100002100F0CCF870BD0000EF
:100DC0002DE9F04180460E46154600273146404643
:100DD000FFF7DEFF00240AE0124A02EB8511085DEE
:100DE000012100F0B7F8781CC7B2601CC4B2102C07
:100DF000F2DB701CC1B24046FFF7CAFF00240CE0D2
:100E00006900491C074A02EB4111085D012100F00D
:100E1000A1F8781CC7B2601CC4B2102CF0DBBDE88E
:100E2000F0810000A40800202DE9F04107460E469D
:100E3000904600250024A8F12000C5B27F2F02DDD6
:100E40000027B01CC6B231463846FFF7A1FF002488
:100E500008E004EB05110F4A505C012100F07AF81C
:100E6000601CC4B2082CF4DB701CC1B23846FFF71A
:100E70008FFF002409E004EB05110831054A505C9E
:100E8000012100F067F8601CC4B2082CF3DBBDE858
:100E9000F0810000804200082DE9FF5F074691467F
:100EA0001D460E9E4FF0000A002433E0281B401E12
:100EB000C1B20A2001F05CFCB9FBF0F00A21B0FBE2
:100EC000F1F201FB1208BAF1000F13D1681EA04223
:100ED00010DDB8F1000F0BD1B34606EBDB71491002
:100EE00001FB0471C8B220220199FFF79DFF0FE0BA
:100EF0004FF0010AB34606EBDB71491001FB0471A8
:100F0000C8B208F13001CAB20199FFF78DFF00BFE6
:100F1000601CC4B2AC42C9DBBDE8FF9F2DE9F041C3
:100F200004460F46154600260EE0AA5D39462046C7
:100F3000FFF77AFF04F10800C4B2782C02DD002428
:100F4000B81CC7B2701CC6B2A85D0028EDD1BDE8C0
:100F5000F081000070B504460E4626B108211848FD
:100F6000FFF7ECFB03E008211548FFF7E5FB102134
:100F70001448FFF7E1FB002517E001211048FFF7B7
:100F8000DBFB04F0800020B102210D48FFF7D6FB07
:100F900003E002210A48FFF7CFFB01210848FFF7D1
:100FA000CDFB6006040E681CC5B2082DE5DB1021E0
:100FB0000448FFF7C3FB08210148FFF7BFFB70BDE2
:100FC00000100140000801407047000029B1064AA6
:100FD000D2690243044BDA6104E0034AD2698243D6
:100FE000014BDA61704700000010024029B1064A47
:100FF00092690243044B9A6104E0034A9269824376
:10100000014B9A61704700000010024030B500218A
:101010000022002400232D4D6D6805F00C0121B144
:10102000042905D0082923D105E0294D056022E0D7
:10103000274D05601FE0254D6D6805F47012234DA6
:101040006D6805F48034022505EB92421CB9214DF0
:10105000554305600BE01D4D6D6805F400351DB16D
:101060001C4D5543056002E0194D5543056002E0F3
:10107000174D056000BF00BF144D6D6805F0F0010D
:101080000909154D6B5C0568DD4045600F4D6D68C5
:1010900005F4E061090A104D6B5C4568DD40856030
:1010A0000A4D6D6805F46051C90A0B4D6B5C4568CB
:1010B000DD40C560054D6D6805F44041890B074D65
:1010C0006B5CC568B5FBF3F5056130BD00100240EF
:1010D00000127A0000093D0032000020420000208A
:1010E00030B503460C461546002207E0184600F0CE
:1010F00008F824F812009B1C501C82B2AA42F5DBAF
:1011000030BD0146088870472DE9F05F80468A4669
:101110001746B8F1006F02D33348804501D3BDE8CC
:10112000F09FFFF755F9A8F1006B4FEADB25CBF3F1
:101130004909C9F58064A74200DC3C464DE04FF008
:10114000006101EBC5204A142849FFF7C9FF0026BA
:101150000BE009EB0600254931F810004FF6FF714E
:10116000884200D003E0701C86B2A642F1DB00BFCB
:10117000A6421BDA4FF0006101EBC520FFF7BEF875
:10118000002608E03AF8160006EB0901174A22F893
:101190001100701C86B2A642F4DB4FF0006101EB37
:1011A000C5204A14114900F023F804E022465146B4
:1011B000404600F01DF8A74200D10FE06D1C4FF033
:1011C00000090AEB440AA044381B87B2B7F5806FC8
:1011D00002DD4FF4806400E03C46B0E700BFFFF75B
:1011E000CDF800BF9BE70000000008088810002031
:1011F0002DE9F04105460E461746002407E036F873
:1012000014102846FFF7C4F8AD1C601C84B2BC4221
:10121000F5DBBDE8F081704710B500F001F810BDB6
:101220000CB50020019000903348006840F48030F5
:101230003149086000BF3048006800F40030009079
:101240000198401C0190009818B90198B0F5A06F62
:10125000F1D12948006800F4003010B1012000905D
:1012600001E0002000900098012843D12348006845
:1012700040F01000214908600846006820F0030093
:1012800008600846006840F0020008601A4840689C
:10129000194948600846406848600846406840F47C
:1012A000806048600846406820F47C10486008462A
:1012B000406840F4E81048600846006840F08070DC
:1012C000086000BF0C48006800F000700028F9D0EA
:1012D0000948406820F00300074948600846406814
:1012E00040F00200486000BF0348406800F00C0076
:1012F0000828F9D10CBD0000001002400020024077
:10130000042808D14FF0E021096941F004014FF0B1
:10131000E022116107E04FF0E021096921F00401AA
:101320004FF0E022116170477047000010B513487C
:10133000006840F001001149086008464068104903
:1013400008400E494860084600680E4908400B49AD
:1013500008600846006820F480200860084640685D
:1013600020F4FE0048604FF41F008860FFF754FF30
:101370004FF000600449086010BD000000100240FA
:101380000000FFF8FFFFF6FE08ED00E010B50121B8
:10139000880700F029F900284AD00121880700F0C9
:1013A00008F924480078012805D123480068401C2A
:1013B0002149086002E000201F4908601F480078AA
:1013C000012805D11E480068401C1D49086002E044
:1013D00000201B4908601B480078012805D11A48E5
:1013E0000068401C1849086002E0002016490860A7
:1013F00016480068012802D11549087011E0154807
:10140000008812490968884203D1002010490870F9
:1014100007E00E480068B0F5616F02D100200B496B
:1014200008600A480068401C0849086002F0CEFDC8
:1014300010BD00009D080020000000209E08002034
:10144000040000209F080020080000200C0000205D
:1014500010000020860800207FB505460C460121BB
:101460000846FFF7B3FDADF80850ADF80440002082
:10147000ADF80A00ADF8060001A94FF0804000F079
:10148000D1F801221146900700F0BFF81C208DF81A
:10149000000000208DF8010002208DF802000120DC
:1014A0008DF803006846FFF703FB0121880700F071
:1014B00083F87FBD10B501210A4800F095F878B196
:1014C0000121084800F075F800F0D0FF06480088B8
:1014D00020B100F061FF00F08DFC01E000F05CFF46
:1014E00010BD000000040040120000207FB505463A
:1014F0000C4601210220FFF769FDADF80850ADF858
:1015000004400020ADF80A00ADF8060001A90E481D
:1015100000F088F8012211460B4800F076F81D20F3
:101520008DF8000000208DF8010003208DF80200E6
:1015300001208DF803006846FFF7BAFA012102483E
:1015400000F03AF87FBD00000004004010B5012112
:10155000054800F049F828B10121034800F029F8B6
:1015600000F020F810BD00000008004010B5012177
:101570000A4800F039F801280AD10949086980476A
:101580000021064800F04CF86421044800F046F8B9
:101590000121024800F00DF810BD0000000C0040D1
:1015A000A40E002000B500F059FF00BDCA4302821E
:1015B0007047CA430282704721B1028842F001029B
:1015C000028004E002884FF6FE731A4002807047E2
:1015D0000146888C704702460020138A0B400BB1ED
:1015E000012000E00020704730B5024600200023B3
:1015F0000024158A05EA0103958905EA010413B15F
:101600000CB1012000E0002030BD1AB183890B43EA
:10161000838102E083898B43838170478185704792
:1016200081847047002202881D4B98420ED01D4BCA
:1016300098420BD0B0F1804F08D01B4B984205D098
:101640001A4B984202D01A4B984204D14FF68F732E
:101650001A404B881A43174B984207D0164B9842B2
:1016600004D04FF6FF431A40CB881A4302808B8880
:1016700083850B8803850A4B98420BD0094B98420F
:1016800008D00E4B984205D00D4B984202D00D4B1E
:10169000984201D10B7A03860123838270470000B0
:1016A000002C0140003401400004004000080040CC
:1016B000000C0040001000400014004000400140B9
:1016C00000440140004801407FB505460C46012119
:1016D0000820FFF77BFCADF80850ADF8044000206F
:1016E000ADF80A00ADF8060001A90D48FFF79AFF12
:1016F000012241210A48FFF788FF32208DF80000BF
:1017000003208DF801008DF8020001208DF8030000
:101710006846FFF7CDF901210148FFF74DFF7FBD76
:10172000000C004008B50020009040F22551094807
:1017300000F075F868B140F22551064800F054F801
:10174000044800F003F9C0B200900121684600F09F
:101750004BFE08BD0044004010B540F225511D4825
:1017600000F05DF810B31B4800F0F0F8C4B21A485E
:10177000008800F40040C8B91748008800F4804091
:1017800060B10A2C03D000201349088020E01248E1
:10179000008840F400401049088019E00D2C06D163
:1017A0000D48008840F480400B49088010E00A484A
:1017B0000088C0F30D0009490C5407480088401CFC
:1017C0000549088008460088C72801DD00200880F8
:1017D00010BD00000038014030000020980F0020AC
:1017E00010B5FFF79FFF10BD10B50022002340F693
:1017F0006A14A14200D100BF0A1201249440A3B28E
:10180000DC43048010BD21B1828942F40052828100
:1018100004E082894DF6FF731A408281704770B5EB
:101820000246002400230025002040F66A16B1423B
:1018300000D100BFC1F3421501F01F03012606FAD3
:1018400003F3012D02D19689334006E0022D02D127
:10185000168A334001E0968A33400C12012606FABC
:1018600004F41688344013B10CB1012000E00020CC
:1018700070BD00002DE9F04786B005460E460024F5
:10188000A24600BFA1460027B08900B100BF2F4685
:101890002C8A4CF6FF700440F08804432C82AC89FB
:1018A0004EF6F3100440B08831890843718908432B
:1018B0000443AC81AC8A4FF6FF400440B089044336
:1018C000AC8201A8FFF7A2FB1F48874202D1DDF8D6
:1018D00010A001E0DDF80CA0A88900F4004040B1A0
:1018E0000AEBCA0000EB0A1031684900B0FBF1F8BE
:1018F00007E00AEBCA0000EB0A1031688900B0FB70
:10190000F1F86420B8FBF0F004012009642101FB28
:101910001089A88900F4004040B1322000EBC900D2
:10192000B0FBF1F000F00700044308E0322000EBC8
:1019300009106421B0FBF1F000F00F0004432C818A
:1019400006B0BDE8F08700000038014001468888F5
:10195000C0F30800704700BFFEE700000FB4054B5E
:1019600010B503A9044A029800F018F810BC5DF8FD
:1019700014FB0000CD2300082C00002002E008C862
:10198000121F08C1002AFAD170477047002001E0F9
:1019900001C1121F002AFBD1704700002DE9FF4F43
:1019A0008DB00F460546002606E025280BD0DDE960
:1019B0000F1290476D1C761C28780028F5D111B0C5
:1019C0003046BDE8F08F0024A246A1460122E94935
:1019D00000E0044315F8013F203B02FA03F00842FF
:1019E000F7D128782A2810D06FF02F022878A0F19C
:1019F0003001092914D80AEB8A0102EB410144F0B5
:101A0000020400EB010A6D1CF0E701CF5FEA000A57
:101A100003D544F40054CAF1000A44F002046D1CDA
:101A200028782E2817D115F8010F44F004042A282D
:101A30000ED06FF02F022878A0F1300109290AD8C2
:101A400009EB890102EB410100EB01096D1CF2E792
:101A500057F8049B6D1C28786C280FD006DC4C28A6
:101A600017D068280DD06A2814D104E0742810D04B
:101A70007A280FD10DE044F400140AE044F48014F5
:101A800001E044F440146978814202D104F58014E5
:101A90006D1C6D1C28786E281ED00CDC632830D09D
:101AA00004DC00288BD0582811D19FE0642867D02F
:101AB00069280CD164E073282DD004DC6F2872D023
:101AC000702804D194E075286ED078286DD0DDE9B7
:101AD0000F129047761C4BE1C4F30250022806D047
:101AE000032809D0042801CF09D0066040E101CFC6
:101AF000F117C0E900613BE101CF068038E10670D3
:101B000036E117F8040B8DF8000000208DF8010075
:101B1000EB46012003E057F804BB4FF0FF306107AC
:101B20004FF0000102D40DE008F10101884649455B
:101B30000FDA8045F8DB1BF808100029F4D108E023
:101B400008F1010188468142FADB1BF808100029E0
:101B5000F6D1DDE90F23AAEB08008146214600F00B
:101B600031F9304400EB080604E0DDE90F121BF800
:101B7000010B9047B8F10108F7D221464846F2E040
:101B80000A21C4F302524FF0000B0891022A04D03C
:101B900001CFC117032A09D00AE0FF1D27F007076C
:101BA000F7E8020108E02CE01EE01FE000B2C117D8
:101BB000042A01D140B2C117021E71F1000206DAF7
:101BC0000023D0EB030063EB01012D2202E022058C
:101BD00004D52B228DF82420012203E0E20701D056
:101BE0002022F7E7904653E00A210BE0102109E09C
:101BF00010214FF0000B44F004044FF00809089145
:101C000003E008214FF0000B0891C4F30252022AAE
:101C100004D001CF0021032A06D006E0FF1D27F0E3
:101C20000707F7E8020103E080B2042A00D1C0B23E
:101C30004FF0000822072BD52A78702A07D0DDF84C
:101C400020C08CF0100C5CEA0B0C05D00EE040229A
:101C50008DF82420012208E050EA010306D0302349
:101C60008DF824308DF8252002229046089B83F0C1
:101C7000080353EA0B030BD150EA010201D16207BA
:101C800006D530228DF824204FF00108A9F1010972
:101C90002A78582A04D038A20B9208AA0A920BE09C
:101CA0003AA2F9E75B46089AFEF772FA0B9B9B5C37
:101CB0000A9A521E0A92137050EA0102F2D10A984F
:101CC000ADEB000000F1200B600702D524F4803456
:101CD00001E04FF00109D94502DDA9EB0B0000E05E
:101CE000002000EB0B0141440890AAEB010AE0033D
:101CF00006D4DDE90F232146504600F063F8064480
:101D00004FF0000908E009A911F80900DDE90F12F8
:101D1000904709F10109761CC145F4DBE0030CD5BD
:101D2000DDE90F232146504600F04CF8064404E05C
:101D3000DDE90F1230209047761C0899481E089064
:101D40000029F5DC08E00A980A990078491C0A91F4
:101D5000DDE90F129047761CBBF10001ABF1010BDE
:101D6000F1DC21465046DDE90F2300F019F8064466
:101D70006D1C21E609280100303132333435363705
:101D800038396162636465660000000030313233C7
:101D90003435363738394142434445460000000067
:101DA0002DE9F041044600251E461746880404D458
:101DB00005E039462020B0476D1C641EF9D5284641
:101DC000BDE8F0812DE9F041044600251E4690460D
:101DD000C80301D5302700E02027880404D505E09A
:101DE00041463846B0476D1C641EF9D52846BDE80B
:101DF000F081000010B55A48007806287ED2DFE84E
:101E000000F0AC032242658801205649086056491B
:101E1000C1F8AC010020554908605549C1F8AC0132
:101E20004FF480415348FEF77EFC01280AD100BFE1
:101E30004FF480414F48FEF776FC0028F8D002208E
:101E4000474908708AE001204B4908700020454945
:101E500008604549C1F8AC01012042490C390860CD
:101E60004649086000204649C1F8A8014548008855
:101E700045490968884205D1032039490870002086
:101E80003D4908706AE0012040490870002035494A
:101E900008603549C1F8AC010120384910390860A3
:101EA0000020364908602F490C3908603449C1F8D0
:101EB000A8013748008837490968884205D10420BD
:101EC0002749087000203149087047E00120324955
:101ED0000870002023490C3908603049C1F8AC0172
:101EE0002F490860214908602449103908602049B9
:101EF000C1F8AC012B4800882B4900E02DE00968AF
:101F0000884205D100202449087005201449087032
:101F100024E0002013490C3908602049C1F8AC01C5
:101F20001F49086001201149086014490860002019
:101F30001A49C1F8A0014FF480510E48FEF7F3FB97
:101F4000012809D100200C49087010490870124975
:101F5000087001200249087000E000BF00BF10BDFA
:101F60009C080020AC01214200802142A88122422D
:101F700000002342002001409D080020AC012342C4
:101F80000080224280080020000000209E080020DF
:101F900082080020040000209F0800200000214249
:101FA000AC81214284080020080000200748007806
:101FB000022803D101200549087006E00348007893
:101FC000032802D10220014908707047A0080020B0
:101FD00008480078012803D102200649087008E06B
:101FE00004480078022803D103200249087000E069
:101FF00000BF7047A008002010B56FF00400FFF785
:102000007FF90A4800680A49B0FBF1F009490870F5
:102010000846007800EB4001C1EBC0104FF6FF719D
:1020200001EAC0000449088010BD0000140000202F
:1020300000127A00280000202A0000200146114AE0
:1020400012884A434FF0E0235A6100229A611A46EF
:10205000126942F001021A6100BF4FF0E0221069DC
:1020600000F001021AB100F48032002AF5D04FF0DE
:10207000E022126922F001024FF0E0231A610022EF
:102080009A6170472A0000200146114A12784A439B
:102090004FF0E0235A6100229A611A46126942F019
:1020A00001021A6100BF4FF0E022106900F0010246
:1020B0001AB100F48032002AF5D04FF0E022126904
:1020C00022F001024FF0E0231A6100229A6170476A
:1020D0002800002008B5A3480078022805D0A148B0
:1020E00090F9000010F1040F1CD19F4800780228DD
:1020F0000FD19E480068C0439D49C1F8A0019B488C
:102100000068012802D19B49087002E0002099492B
:102110000870994802230C22002100900846FEF71F
:1021200029FDC4E08F480078032805D08D4890F938
:10213000000010F1030F1ED18B480078022811D146
:102140008A480C300068C0438949C1F8AC0187480F
:102150000C300068012802D18849087002E0002094
:1021600086490870844804230C2202210090002034
:10217000FEF700FD9BE07B480078042805D07948F5
:1021800090F9000010F1020F1CD177480078022866
:102190000FD17B480068C0437A49C1F8A001784854
:1021A0000068012802D17849087002E000207649D1
:1021B0000870714806230C22042100900020FEF7CD
:1021C000D9FC74E067480078052805D0654890F987
:1021D0000000B0F1FF3F1ED163480078022811D102
:1021E000674808300068C0436649C1F8A8016448E0
:1021F00008300068012802D16449087002E000201C
:10220000624908705C4802234E220021009042205F
:10221000FEF7B0FC4BE053480078062802D0514846
:102220000078F0B950480078022811D15448103095
:102230000068C0435349C1F8B001514810300068EC
:10224000012802D15249087002E00020504908706C
:10225000494804234E22022100904220FEF78AFCC6
:1022600025E040480078072803D03E480078012840
:102270001DD13D480078022811D14148183000682E
:10228000C0434049C1F8B8013D48183000680128F2
:1022900002D14049087002E000203E4908703648EB
:1022A00006234E22042100904220FEF763FC3148B1
:1022B0000078012805D1152200212820FEF780FD95
:1022C00004E0162200212820FEF77AFD2B48007832
:1022D000012805D1152202212820FEF771FD04E016
:1022E000162202212820FEF76BFD274800780128DE
:1022F00005D1152204212820FEF762FD04E01622F4
:1023000004212820FEF75CFD20480078012805D133
:10231000152200216C20FEF753FD04E01622002157
:102320006C20FEF74DFD1A480078012805D11522D2
:1023300002216C20FEF744FD04E0162202216C20ED
:10234000FEF73EFD13480078012805D1152204212F
:102350006C20FEF735FD04E0162204216C20FEF708
:102360002FFD08BD9A08002097080020A0012142F7
:10237000000021428C080020480800208D08002021
:10238000A0812242008022428E0800208F08002077
:10239000900800209108002010B500F067F80A4866
:1023A0000078012804D0022805D0032809D105E0CF
:1023B000FEF7B2FA06E0FEF7DBFA03E0FEF728F8D4
:1023C00000E000BF00BF10BDA008002000BF054A0C
:1023D000128802F04002002AF9D0C2B2014B1B1D44
:1023E0001A8070470038014070B504460D4600263B
:1023F00024B90AA0FFF7B2FA701E70BD2A46214622
:102400000E4800F0F2F90646AE4205D00CA0FFF7E8
:10241000A5FA4FF0FF30F0E73046EEE74552523A6A
:102420002067697A50757444617461206275662012
:10243000697320656D707479200A0000A819002066
:102440004552523A204661696C656420746F20726F
:10245000625772697465200A000000000248006833
:10246000401C014908607047640E002010B5FEF75B
:10247000BFF9A849087008460078072847D2DFE866
:1024800000F046FBEDE090470400A3480068008898
:10249000C0EB00104FF6FF7101EA80009F490880F1
:1024A0009F4800680088C0EB00104FF6FF7101EAFA
:1024B00080009C4908809C4800680088C0EB0010A0
:1024C0004FF6FF7101EA800098490880984800683B
:1024D0000088C0EB00104FF6FF7101EA80009549BB
:1024E00008808E480088944908808E48008848807B
:1024F0008E48008888808F480088C88008228F48CE
:10250000FEF702FE8EA206215520FEF707FDFEE033
:102510008C48006808B9012000E000208949086063
:10252000FEF708FB88480078401C40B286490870D6
:1025300008460078032801D10020087083484078BD
:1025400001280CD182480078401C40B280490870B4
:1025500008460078062823D10220087020E07B4836
:10256000407802280CD17B480078401C40B2794961
:10257000087008460078082812D1022008700FE081
:102580007248407803280BD173480078401C40B251
:102590007149087008460078062801D102200870A9
:1025A000B5E0FEF7C7FA6748006808B9012000E007
:1025B00000206449086064480078401E40B26249C7
:1025C0000870084690F9000010F1030F01D10020B7
:1025D00008705E48407801280ED15D480078401EA2
:1025E00040B25B490870084690F9000010F1020FF4
:1025F00014D10220087011E05448407802280DD10F
:1026000054480078401E40B252490870084690F97C
:10261000000010F1040F01D1022008704B484078EF
:1026200003280DD14C480078401E40B24A4908703A
:10263000084690F9000010F1020F01D10220087045
:1026400065E04048006808B9012000E000203D49ED
:102650000860FEF76FFAFFF7A9FC58E0FEF76AFA88
:10266000FFF7B6FC3748006810B9012001E003E02D
:102670000020344908604AE0FEF75CFA31480068FF
:1026800008B9012000E000202E4908603348B0F965
:102690000000C04331490880082231492748FEF72D
:1026A0001FFD2F4800881D4908802D4840881D497E
:1026B00008802B4880881D4908802948C0881D490A
:1026C0000880164800883C2190FBF1F01249096807
:1026D0000880144800883C2190FBF1F010490968FB
:1026E0000880124800883C2190FBF1F00E490968EF
:1026F0000880104800883C2190FBF1F00C490968E3
:10270000088018A206215520FEF708FC00BF00BF74
:1027100010BD0000970800207008002080080020ED
:102720007408002082080020780800208408002017
:102730007C080020860800206008002000000708B0
:1027400057000000A481234298080020A008002020
:10275000990800209A0800209B0800201200002001
:10276000781000205200000000F08AFB00BFFEE756
:1027700010B50246012000E050430B1EA1F10104F8
:10278000E1B2F9D110BD00B5024612B94FF0FF30E9
:1027900000BD50689168884201D10020F8E7506878
:1027A0009168884203D290685168401AF0E7104659
:1027B00000F014F851689368C91A401AE8E730B578
:1027C000044614B94FF0FF3030BD204600F006F843
:1027D00005462046FFF7D7FF281AF5E7014611B94D
:1027E0004FF0FF3070470868FCE72DE9F0410446E0
:1027F0000F461546002604B11FB94FF0FF30BDE863
:10280000F0812046FFF7DBFFA84202D86FF00100FD
:10281000F5E76068A16888422AD82046FFF7DEFF06
:10282000A168E268891A461AB54213D8A0682A46F8
:102830003946FDF79BFCA0682844A0602046FFF7BE
:10284000CDFFE1680844A168884201D1E068A0603A
:102850002846D4E7A06832463946FDF787FCE06891
:10286000A060AA1BB9192046FFF7BFFF3044C6E796
:10287000A0682A463946FDF779FCA0682844A06084
:102880002846BCE7014608687047000008B56B4859
:102890000078022805D0694890F9000010F1020F75
:1028A0001CD16748007802280FD166480068C043F1
:1028B0006549C1F8AC0163480068012802D1634949
:1028C000087002E0002061490870614802230C2270
:1028D000002100900846FEF74DF972E05748007855
:1028E000032805D0554890F90000B0F1FF3F1CD1F6
:1028F0005348007802280FD156480068C043564913
:10290000C1F8A40153480068012802D15349087056
:1029100002E00020514908704D4804230C22022196
:1029200000900020FEF726F94BE044480078042888
:1029300002D042480078F0B941480078022811D10D
:10294000444808300068C0434349C1F8AC014148DD
:1029500008300068012802D14149087002E00020D7
:102960003F4908703A4802234E220021009042203D
:10297000FEF700F925E031480078052803D02F48FC
:10298000007801281DD12E480078022811D1314845
:1029900008380068C0433049C1F89C012D48083808
:1029A0000068012802D12F49087002E000202D495B
:1029B0000870274804234E22022100904220FEF78F
:1029C000D9F822480078012805D1152200213220AB
:1029D000FEF7F6F904E0162200213220FEF7F0F9A6
:1029E0001E480078012805D1152202213220FEF769
:1029F000E7F904E0162202213220FEF7E1F9184837
:102A00000078012805D1152200217320FEF7D8F99E
:102A100004E0162200217320FEF7D2F91148007855
:102A2000012805D1152202217320FEF7C9F904E01F
:102A3000162202217320FEF7C3F908BD9908002071
:102A400097080020AC8121420080214288080020A4
:102A500048080020A40123420000234289080020E6
:102A60008A0800208B08002008B5E048007802287A
:102A700005D0DE4890F9000010F1020F5CD1DC486F
:102A800002230C22002100900846FEF773F8D94873
:102A9000007802284FD14AE0FDF7AAFED549087018
:102AA00008460078042806D1D348006800880A3018
:102AB000D14909680880CF480078052806D1CE485A
:102AC000006800880A38CC4909680880CA4800684C
:102AD0000088002803DC0020C7490968088010200E
:102AE0000090C54800680288032300212820FEF7D3
:102AF000D3F910200090C148006802880323022106
:102B00002820FEF7C9F910200090BD48006802880F
:102B1000032300216820FEF7BFF910200090B94878
:102B200000680288032302216820FEF7B5F9B14846
:102B300000780328B0D12FE1AC480078032805D0F5
:102B4000AA4890F90000B0F1FF3F5CD1A8480423E7
:102B50000C22022100900020FEF70CF8A548007816
:102B60000228E8D14AE0FDF743FEA2490870084672
:102B70000078042806D1A148006800880A309F49DF
:102B8000096808809B480078052806D19B480068A2
:102B900000880A38994909680880984800680088C0
:102BA000002803DC00209549096808801020009067
:102BB000914800680288032300212820FEF76CF961
:102BC000102000908D4800680288032302212820ED
:102BD000FEF762F9102000908948006802880323FC
:102BE00000216820FEF758F9102000908548006801
:102BF0000288032302216820FEF74EF97D48007801
:102C00000328B0D1C8E079480078042803D0774879
:102C1000007800285CD1764802234E2200210090E3
:102C20004220FDF7A7FF734800780228EAD14AE066
:102C3000FDF7DEFD6F49087008460078042806D1CC
:102C40006F48006800880A306D4909680880694843
:102C50000078052806D16A48006800880A38684963
:102C600009680880664800680088002803DC0020A6
:102C7000634909680880102000905F480068028856
:102C8000032300212820FEF707F9102000905B485D
:102C900000680288032302212820FEF7FDF8102097
:102CA0000090574800680288032300216820FEF73F
:102CB000F3F8102000905348006802880323022193
:102CC0006820FEF7E9F84B4800780328B0D163E0AC
:102CD00046480078052803D04448007801285BD195
:102CE000434804234E22022100904220FDF742FF78
:102CF0004048007802284FD14AE0FDF779FD3D4970
:102D0000087008460078042806D13E48006800880C
:102D10000A303C490968088036480078052806D101
:102D20003848006800880A383649096808803548FC
:102D300000680088002803DC002032490968088008
:102D4000102000902C4800680288032300212820CE
:102D5000FEF7A2F81020009028480068028803239C
:102D600002212820FEF798F81020009024480068DF
:102D70000288032300216820FEF78EF810200090BF
:102D8000204800680288032302216820FEF784F8A7
:102D9000184800780328B0D1102000901648006829
:102DA0000288032300212820FEF776F810200090E7
:102DB000124800680288032302212820FEF76CF8DD
:102DC000102000900E48006802880323002168202C
:102DD000FEF762F8102000900A480068028803237A
:102DE00002216820FEF758F808BD00009B0800206B
:102DF0004808002097080020700800207408002070
:102E0000780800207C08002010B586B00446012117
:102E100044F20500FEF7EAF84FF40070ADF8140034
:102E200003208DF8160018208DF8170005A9124808
:102E3000FDF7EEFB4FF48060ADF8140004208DF830
:102E4000170005A90C48FDF7E3FB01940020ADF83D
:102E50000800ADF80A00ADF80C00ADF810000C2029
:102E6000ADF80E0001A90548FEF704FD0121034855
:102E7000FEF7C9FC06B010BD000801400038014053
:102E800010B5FDF713FA00200D4908600D49C1F88F
:102E9000AC010D4908600C49083108600A4910313D
:102EA0000860094918310860084908600849086045
:102EB0000749083108600749C1F89C0110BD0000AE
:102EC000A001214200002142A0812242AC81214286
:102ED000A40123420000234230B595B0054613AB50
:102EE00012AA09A9284600F039FA044614B120466E
:102EF00015B030BD0020149026E0224909689DF8E5
:102F0000502001EBC20113AB11AA486801A900F0DF
:102F100025FA04460CB12046EAE709A901A800F009
:102F2000BBFC60B99DF844009DF84810884201DD63
:102F30000220DDE79DF85000124988750AE09DF8EF
:102F40005000401CC0B214900E48007D9DF85010F7
:102F50008842D2DC00BF0B48007D9DF850108842AB
:102F600001D10420C4E714A9284600F0D7FA04468A
:102F70000CB12046BCE79DF850000249487500207E
:102F8000B6E70000A40E00202DE9F0419AB09C485D
:102F9000847D007DA04202DC1AB0BDE8F081984932
:102FA000096801EBC40106AB07AA486808A900F04C
:102FB000D5F908A993A0FEF7D1FC002644E090487B
:102FC000008B0121B1400840D8B122218FA0FEF72B
:102FD000C5FC304600F028FB8949243147183946A2
:102FE0008BA0FEF7BBFC222188A0FEF7B7FC304681
:102FF00000F01AFB82492431084410A941F8260048
:1030000018E0304600F010FB7D492431085810A923
:1030100041F826007A48C07D30B910A850F8261033
:103020007CA0FEF79BFC05E010A850F826107AA0C3
:10303000FEF794FC9DF81C00401EB04202D078A020
:10304000FEF78CFC701CC6B29DF81C008642B6DBF5
:1030500074A0FEF783FC00F039FB6948407D0B2823
:103060000DD2DFE800F0060D151E27323F4E5F72CD
:1030700087006349096851F834008047054690E0AD
:103080005F4A126852F8341010988847054688E065
:103090005B4B1B6853F83420DDE91001904705466F
:1030A0007FE0574F3F6857F8343010A807C898475B
:1030B000054676E0DFF848C1DCF800C05CF8347003
:1030C00010A80FC8B84705466BE01498DFF830C168
:1030D0000090DCF800C05CF8347010A80FC8B84746
:1030E00005465EE0DDE91401DFF814C1CDE9000119
:1030F000DCF800C05CF8347010A80FC8B84705466B
:103100004FE0DDE914121698DFF8F4C0CDE90012A3
:103110000290DCF800C05CF8347010A80FC8B84703
:1031200005463EE0DDE91423DDE91610DFF8D0C0E6
:10313000CDE90023CDE90210DCF800C05CF8347062
:1031400010A80FC8B84705462BE0DDE91523DDE9D7
:103150001710CDE90123CDE903101498DFF8A0C0C2
:103160000090DCF800C05CF8347010A80FC8B847B5
:10317000054616E0DDE91623DDE91810CDE9022346
:10318000CDE90410DDE91401DFF874C0CDE90001D8
:10319000DCF800C05CF8347010A80FC8B8470546CA
:1031A00000BF00BF00F050FA9DF8180001280CD1B4
:1031B0001348C07D20B929461BA0FEF7CFFB07E0CE
:1031C00029461BA0FEF7CAFB02E018A0FEF7C6FBCB
:1031D0000B4890F8EC0088B10948D0F8F0000A21BB
:1031E000B0FBF1F201FB12070548D0F8F000B0FB8C
:1031F000F1F83A46414611A0FEF7B0FB00BFCBE61E
:10320000A40E00200D0A257328000000256300008D
:1032100025730000256C750030582558000000000B
:103220002C000000290000003D256C753B0D0A00B4
:103230003D305825583B0D0A0000000046756E636E
:1032400074696F6E2052756E2054696D653A2564FD
:103250002E2531646D730D0A00000000F0B50346A1
:103260001546002000220026002455E01F782C2F50
:1032700001D104B901221F78292F01D01F780FB97D
:1032800004B94AE0002E34D11F78302F02DB1F78BA
:10329000392F11DD1F78612F02DB1F78662F0BDDC0
:1032A0001F78412F02DB1F78462F05DD1F78582F2E
:1032B00002D01F78782F0CD102B12EE01F78612F39
:1032C00003DB1F78203F0F7001E01F780F70491C4F
:1032D0001FE01F78222F04D102B11EE00126012435
:1032E00017E01F78202F14D01F782C2F11D0FF2625
:1032F00013E01F78222F00D1002402B10DE044B169
:103300001F785C2F02D15B1C471CF8B21F780F702E
:10331000491C471CF8B25B1CA8E700BF00270F70D0
:103320002E70F0BD10B50446002010700BE0207820
:103330000870641C491C1078401C1070107898426A
:1033400001DB012010BD2078202802D02078002841
:10335000EDD10020087000BFF4E700002DE9FF4F19
:1033600085B0804689460027002004900390012004
:1033700002904FF0000B002544461DE020782028E5
:1033800016D005F07F00052812DA0DB945F080054A
:1033900005F07F00042803D120782A2800D00EE011
:1033A000207805F07F010DF80100681CC5B202E02D
:1033B000852D00D103E0641C20780028DED100BFF9
:1033C0008DB1002005F07F010DF8010051A1684684
:1033D00000F062FA18B900210898017002E001219A
:1033E0000898017000254FF0000A444614E0641C60
:1033F0000AF1010000F0FF0A2078202802D020788E
:103400002A2809D1204600F0D7F90646282E03D0F5
:103410002A2E01D0CDF810A02078282802D02078BC
:103420000028E4D14446049810B10498401C044498
:103430004FF0000A002654E0207810B94FF0010A3E
:1034400050E02078282803D116B9781CC7B213E0C1
:103450002078292808D13EB917B1781EC7B201E0FB
:103460004FF0010A47B93DE02078222804D10EB977
:10347000012000E00020064647B9207820282FD000
:10348000207889F8000009F1010929E020782C282A
:1034900004D101200290681CC5B214E020782028D5
:1034A00011D0207828280ED04DB9BBF1050F06DACF
:1034B00020780DF80B000BF1010000F0FF0B0298D3
:1034C000401CC0B20290012F0AD10298022807D1F5
:1034D0000298401CC0B202900398401CC0B20390F6
:1034E000641CA9E700BF0398012809D100200DF84A
:1034F0000B0008A1684600F0CFF908B9002003903E
:10350000079903980870002089F80000504609B018
:10351000BDE8F08F766F6964000000002DE9F0438C
:10352000B5B005460F460024002604E000213D48C2
:103530008155701CC6B20A2EF8DB06E06D1C287897
:1035400018B9012035B0BDE8F08328782828F5D1D6
:103550006D1C61E034AA69462846FFF77FFE0646E7
:1035600035449DF8D00020B1012827D0FF284CD148
:1035700049E09DF8000000B333A9684600F027F940
:1035800006460EB10220DDE7204600F04DF8254941
:103590000A31339A0A50A1F12400008B0121A14085
:1035A000884320491A39088304211E480155601CAC
:1035B000C4B20A2C01DD0320C4E726E0684600F00F
:1035C00087F9401C00F0FF08204600F02DF815494F
:1035D0000A3100EB01094946684600F06EF91148CE
:1035E0001A38018B0120A040014388B20D491A39D5
:1035F00008830C4800F80480601CC4B20A2C01DD6A
:1036000003209FE701E002209CE700BF28782928DB
:1036100001D0287800B900E09CE700BF3C70002092
:1036200090E70000BE0E002002460020002105E0C9
:10363000044B5B5C0344D8B24B1CD9B29142F7DB1C
:1036400070470000BE0E002010B501210D48FDF7A7
:10365000C2FF012808D10C48D0F8F0004FF6FF71E6
:1036600008440949C1F8F0000648FDF7B1FF0649D2
:10367000D1F8F01008440449C1F8F0000846D0F829
:10368000F00010BD000C0040A40E002010B5044650
:1036900004EBC40000EB04100122C2EB800081B2F5
:1036A0004FF47A70FEF710F801200149C87510BD7B
:1036B000A40E002010B50246012000E050430B1E6E
:1036C000A1F10104E1B2F9D110BD000010B5012152
:1036D0000848FDF76BFF4FF6FF710648FDF79EFFA8
:1036E00000210448FDF79CFF00200349C1F8F000C9
:1036F00010BD0000000C0040A40E002070B51D4855
:10370000008800F40040002833D01A4805780020D3
:1037100019494855194881681748884704461CB913
:103720001649C868804721E0134800F0DDF80546D7
:10373000012D00D02C46CCB1012C06D0022C08D093
:10374000032C0AD0042C10D10BE00DA0FEF706F9D3
:103750000BE00EA0FEF702F907E00FA0FEF7FEF85F
:1037600003E010A0FEF7FAF800BF00BF00200149F7
:10377000088070BD30000020980F0020A40E0020AB
:10378000BAAFCAFDB4EDCEF3210D0A00B2CECAFD28
:10379000B4EDCEF3210D0A00B2CECAFDCCABB6E03B
:1037A000210D0A00CEB4D5D2B5BDC6A5C5E4B5C4B9
:1037B000BAAFCAFD210D0A000146491C00E0491CB0
:1037C0000878202801D10029F9D1087870472DE91F
:1037D000F04307460E4600254FF00A083C460020FD
:1037E00030601FE02078392802DC207830280ADA9F
:1037F0002078462802DC2078412804DA20785828EE
:1038000009D1012D07D12078412801DB4FF01008A4
:10381000681CC5B205E0207800B904E00120BDE8CD
:10382000F083641CDEE700BF3C46B8F1100F0FD1F7
:10383000032D01DA0220F2E72078302806D16078E3
:10384000582803D1A41CA81EC5B204E00320E6E753
:103850000DB90420E3E71BE00DB1681EC5B2207866
:10386000392806DC2078302803DB2078A0F13009E5
:1038700002E02078A0F1370929464046FFF71AFFF9
:10388000316809FB00103060641C207800B900E04A
:10389000E2E700BF0020C2E702460AE010780B789A
:1038A000984201D001207047107800B902E0521C04
:1038B000491CF3E700BF0020F5E706E002780A7034
:1038C000027802B902E0401C491CF7E700BF7047CC
:1038D0000146002005E00A7802B903E0421CD0B29C
:1038E000491CF8E700BF704710B58CB004461E2392
:1038F0000BAA03A92046FFF715FD0090009810B110
:1039000001200CB010BD9DF82C00044400200B9049
:103910000EE040489DF82C2050F8221003A8FFF735
:10392000BBFF00B908E09DF82C00401CC0B20B9012
:103930009DF82C000728ECD300BF9DF82C00072829
:1039400063D2DFE800F004053C5E6564630000BFFD
:1039500031A0FEF703F831A0FEF700F83FA0FDF715
:10396000FDFF4EA0FDF7FAFF5CA0FDF7F7FF6BA08F
:10397000FDF7F4FF79A0FDF7F1FF86A0FDF7EEFF5C
:103980008BA0FDF7EBFF90A0FDF7E8FF94A0FDF7FB
:10399000E5FF99A0FDF7E2FF9EA0FDF7DFFFA4A0E1
:1039A000FDF7DCFFB0A0FDF7D9FFBDA0FDF7D6FF06
:1039B000C8A0FDF7D3FFD4A0FDF7D0FF9AE216A070
:1039C000FDF7CCFFE0A0FDF7C9FF00200B900EE053
:1039D000ED4800689DF82C2000EBC2004168EBA088
:1039E000FDF7BCFF9DF82C00401CC0B20B90E648D0
:1039F000007D9DF82C108842EADC07A0FDF7AEFFA1
:103A000078E205A0FDF7AAFFC4E171E245E219E200
:103A1000ECE10000680E00200D0A00002D2D2D2D78
:103A20002D2D2D2D2D2D2D2D2D2D2D2D2D2D2D2DC6
:103A30002D2D2D2D55534D4152542056332E312DC1
:103A40002D2D2D2D2D2D2D2D2D2D2D2D2D2D2D2DA6
:103A50002D2D2D2D2D2D2D200D0A00002020202074
:103A600055534D415254CAC7D3C9414C49454E5490
:103A7000454BBFAAB7A2B5C4D2BBB8F6C1E9C7C906
:103A8000B5C4B4AEBFDAB5F7CAD4BBA5BDBBD7E9E0
:103A9000BCFE2CCDA8B9FD200D0A0000CBFC2CC427
:103AA000E3BFC9D2D4CDA8B9FDB4AEBFDAD6FACA45
:103AB000D6B5F7D3C3B3CCD0F2C0EFC3E6B5C4C814
:103AC000CEBACEBAAFCAFD2CB2A2D6B4D0D02ED2C6
:103AD000F2B4CB2CC4E3BFC90D0A0000D2D4CBE6AC
:103AE000D2E2B8FCB8C4BAAFCAFDB5C4CAE4C8EBE8
:103AF000B2CECAFD28D6A7B3D6CAFDD7D628313054
:103B00002F3136BDF8D6C629A1A2D7D6B7FBB4AEA1
:103B1000A1A2BAAFCAFDC8EB0D0A0000BFDAB5D842
:103B2000D6B7B5C8D7F7CEAAB2CECAFD292CB5A54F
:103B3000B8F6BAAFCAFDD7EEB6E0D6A7B3D63130E5
:103B4000B8F6CAE4C8EBB2CECAFD2CB2A2D6A7B36F
:103B5000D6BAAFCAFDB7B5200D0A0000BBD8D6B59E
:103B6000CFD4CABE2ED0C2D4F6B2CECAFDCFD4CAEC
:103B7000BEBDF8D6C6C9E8D6C3B9A6C4DC2CD0C22F
:103B8000D4F6BDF8D6C6D7AABBBBB9A6C4DC2E0DE9
:103B90000A000000BCBCCAF5D6A7B3D63A7777773F
:103BA0002E6F70656E6564762E636F6D0D0A000072
:103BB00055534D415254D3D037B8F6CFB5CDB3C3DA
:103BC000FCC1EE3A0D0A00003F3A202020202020C0
:103BD000BBF1C8A1B0EFD6FAD0C5CFA20D0A000044
:103BE00068656C703A202020BBF1C8A1B0EFD6FA0E
:103BF000D0C5CFA20D0A00006C6973743A20202052
:103C0000BFC9D3C3B5C4BAAFCAFDC1D0B1ED0D0AA7
:103C10000A00000069643A2020202020BFC9D3C3D5
:103C2000BAAFCAFDB5C44944C1D0B1ED0D0A0A000E
:103C30006865783A20202020B2CECAFD3136BDF822
:103C4000D6C6CFD4CABE2CBAF3B8FABFD5B8F12BBA
:103C5000CAFDD7D6BCB4D6B4D0D0BDF8D6C6D7AA84
:103C6000BBBB0D0A0A0000006465633A20202020D7
:103C7000B2CECAFD3130BDF8D6C6CFD4CABE2CBA3A
:103C8000F3B8FABFD5B8F12BCAFDD7D6BCB4D6B4B9
:103C9000D0D0BDF8D6C6D7AABBBB0D0A0A0000001B
:103CA00072756E74696D653A312CBFAAC6F4BAAFED
:103CB000CAFDD4CBD0D0BCC6CAB13B302CB9D8B128
:103CC000D5BAAFCAFDD4CBD0D0BCC6CAB13B0D0A61
:103CD0000A000000C7EBB0B4D5D5B3CCD0F2B1E048
:103CE000D0B4B8F1CABDCAE4C8EBBAAFCAFDC3FBD1
:103CF000BCB0B2CECAFDB2A2D2D4BBD8B3B5BCFC64
:103D0000BDE1CAF82E0D0A002D2D2D2D2D2D2D2DA6
:103D10002D2D2D2D2D2D2D2D2D2D2D2D2D2D2D2DD3
:103D20002D2D414C49454E54454B2D2D2D2D2D2DDE
:103D30002D2D2D2D2D2D2D2D2D2D2D2D2D2D2D2DB3
:103D40002D2D2D200D0A00002D2D2D2D2D2D2D2D4D
:103D50002D2D2D2D2D2D2D2D2D2D2D2D2D2D2D2D93
:103D60002DBAAFCAFDC7E5B5A52D2D2D2D2D2D2DB5
:103D70002D2D2D2D2D2D2D2D2D2D2D2D2D2D2D2D73
:103D80002D2D2D2D200D0A00A40E002025730D0AC7
:103D90000000000059A0FDF7E1FD00200B901AE0A3
:103DA000664909689DF82C2001EBC20101AB02AA0B
:103DB000486803A9FFF7D2FA604800689DF82C1004
:103DC00050F8312003A95EA0FDF7C8FD9DF82C0036
:103DD000401CC0B20B905948007D9DF82C108842C1
:103DE000DEDCAFF2CC30FDF7B9FD83E0AFF2D830C6
:103DF000FDF7B4FD0BAA03A92046FFF72FFA9DF8A3
:103E00002C00C8B9694603A8FFF7E1FC0B909DF8A8
:103E10002C0020B94FA00099FDF7A0FD0EE09DF801
:103E20002C00042801D002206BE54DA0FDF796FD83
:103E300001204249C87501E0022062E547A0FDF774
:103E40008DFD57E045A0FDF789FD0BAA03A920468B
:103E5000FFF704FA9DF82C00C8B9694603A8FFF7DC
:103E6000B6FC0B909DF82C0020B942A00099FDF7FC
:103E700075FD0EE09DF82C00042801D0022040E5DD
:103E80003FA0FDF76BFD00202C49C87501E0022022
:103E900037E532A0FDF762FD2CE030A0FDF75EFDB6
:103EA0000BAA03A92046FFF7D9F99DF82C00C8B941
:103EB000694603A8FFF78BFC0B909DF82C0078B99E
:103EC0001E49009881F8EC00084690F8EC0018B103
:103ED00030A0FDF743FD07E035A0FDF73FFD03E00F
:103EE00002200EE502200CE51CA0FDF737FD01E0E5
:103EF000012006E500BF002003E500002D2D2D2D3B
:103F00002D2D2D2D2D2D2D2D2D2D2D2D2D2D2D2DE1
:103F10002D2D2D2D2DBAAFCAFD204944202D2D2D3C
:103F20002D2D2D2D2D2D2D2D2D2D2D2D2D2D2D2DC1
:103F30002D2D2D2D2D2D2D2D200D0A00A40E002010
:103F400025732069642069733A0D0A30582530388A
:103F5000580D0A004845583A305825580D0A0000B7
:103F60003136BDF8D6C6B2CECAFDCFD4CABE210DF9
:103F70000A0000004445433A256C750D0A00000014
:103F80003130BDF8D6C6B2CECAFDCFD4CABE210DDF
:103F90000A00000052756E2054696D652043616C03
:103FA00063756C6174696F6E204F4E0D0A000000DE
:103FB00052756E2054696D652043616C63756C6148
:103FC00074696F6E204F46460D0A000010B51C48FC
:103FD0000078012805D001211A48FCF7A4FB01282C
:103FE0001BD101201849086015480078012802D12A
:103FF0001649086002E000201449086001211148B8
:10400000FCF791FB012803D110490839086015E03D
:1040100000200E490839086010E00948007868B9A6
:1040200001210848FCF77FFB40B900200749083907
:1040300008600749C1F8B8010349086010BD0000D5
:104040001000002000200140A4012342B881224238
:104050000080224201607047000000000000000064
:10406000002F000000000700070000147F147F14D9
:1040700000242A7F2A12006264081323003649555F
:10408000225000000503000000001C224100000037
:1040900041221C000014083E08140008083E0808CD
:1040A000000000A060000008080808080000606028
:1040B0000000002010080402003E5149453E000067
:1040C000427F4000004261514946002141454B3149
:1040D000001814127F10002745454539003C4A4915
:1040E0004930000171090503003649494936000687
:1040F0004949291E000036360000000056360000EF
:104100000008142241000014141414140000412269
:10411000140800020151090600324959513E007C41
:104120001211127C007F49494936003E414141222B
:10413000007F4141221C007F49494941007F090914
:104140000901003E4149497A007F0808087F0000C4
:10415000417F4100002040413F01007F081422417F
:10416000007F40404040007F020C027F007F040837
:10417000107F003E4141413E007F09090906003E93
:104180004151215E007F09192946004649494931BC
:104190000001017F0101003F4040403F001F2040DF
:1041A000201F003F4038403F00631408146300079D
:1041B0000870080700615149454300007F414100F4
:1041C00000552A552A55000041417F000004020194
:1041D0000204004040404040000001020400002072
:1041E00054545478007F48444438003844444420B0
:1041F00000384444487F00385454541800087E095D
:1042000001020018A4A4A47C007F08040478000024
:10421000447D4000004080847D00007F10284400E1
:104220000000417F4000007C04180478007C0804F2
:10423000047800384444443800FC2424241800182E
:10424000242418FC007C080404080048545454201A
:1042500000043F444020003C4040207C001C2040A3
:10426000201C003C4030403C004428102844001CE6
:10427000A0A0A07C004464544C44141414141414DE
:10428000000000000000000000000000000000002E
:10429000000000F8000000000000003330000000C3
:1042A00000100C06100C06000000000000000000CA
:1042B00040C07840C0784000043F04043F0404003C
:1042C000007088FC08300000001820FF211E00004C
:1042D000F008F000E018000000211C031E211E0061
:1042E00000F00888700000001E21232419272110E7
:1042F00010160E000000000000000000000000008A
:10430000000000E018040200000000071820400030
:1043100000020418E0000000004020180700000020
:10432000404080F0804040000202010F0102020084
:10433000000000F0000000000101011F0101010068
:10434000000000000000000080B0700000000000CD
:104350000000000000000000000101010101010156
:1043600000000000000000000030300000000000ED
:1043700000000000806018040060180601000000C2
:1043800000E010080810E000000F102020100F00BF
:10439000001010F8000000000020203F2020000046
:1043A000007008080888700000302824222130009E
:1043B00000300888884830000018202020110E00A6
:1043C0000000C02010F8000000070424243F24004F
:1043D00000F80888880808000019212020110E0024
:1043E00000E0108888180000000F112020110E0036
:1043F00000380808C83808000000003F000000002E
:104400000070880808887000001C222121221C00EE
:1044100000E010080810E0000000312222110F0017
:10442000000000C0C00000000000003030000000AC
:10443000000000800000000000008060000000001C
:104440000000804020100800000102040810200035
:104450004040404040404000040404040404040080
:104460000008102040800000002010080402010015
:10447000007048080808F000000000303601000015
:10448000C030C828E810E0000718272423140B00C8
:104490000000C038E0000000203C23020227382042
:1044A00008F8888888700000203F202020110E0026
:1044B000C03008080808380007182020201008001D
:1044C00008F808080810E000203F202020100F0006
:1044D00008F88888E8081000203F202023201800D2
:1044E00008F88888E8081000203F2000030000003A
:1044F000C03008080838000007182020221E0200DB
:1045000008F808000008F808203F210101213F2099
:10451000000808F8080800000020203F20200000C4
:1045200000000808F8080800C08080807F000000B4
:1045300008F888C028180800203F200126382000ED
:1045400008F8080000000000203F20202020300054
:1045500008F8F800F8F80800203F003F003F20006E
:1045600008F830C00008F808203F200007183F0076
:10457000E01008080810E0000F10202020100F00A5
:1045800008F808080808F000203F21010101000098
:10459000E01008080810E0000F18242438504F00DD
:1045A00008F8888888887000203F2000030C30209D
:1045B00000708808080838000038202121221C00DB
:1045C000180808F8080818000000203F2000000024
:1045D00008F808000008F808001F202020201F000D
:1045E0000878880000C83808000007380E0100006D
:1045F000F80800F80008F800033C0700073C030037
:10460000081868808068180820302C03032C30209C
:104610000838C800C83808000000203F200000000B
:1046200010080808C8380800203826212020180063
:10463000000000FE020202000000007F4040400037
:10464000000C30C000000000000000010638C0006F
:1046500000020202FE000000004040407F00000017
:10466000000004020202040000000000000000003C
:10467000000000000000000080808080808080803A
:104680000002020400000000000000000000000022
:1046900000008080808000000019242222223F2018
:1046A00008F8008080000000003F112020110E005B
:1046B0000000008080800000000E112020201100EA
:1046C000000000808088F800000E112020103F209C
:1046D0000000808080800000001F22222222130020
:1046E000008080F0888888180020203F202000006B
:1046F0000000808080808000006B94949493600020
:1047000008F8008080800000203F210000203F202A
:1047100000809898000000000020203F202000002A
:10472000000000809898000000C08080807F00001A
:1047300008F8000080808000203F24022D302000F7
:10474000000808F8000000000020203F20200000A2
:104750008080808080808000203F20003F20003FBC
:104760008080008080800000203F210000203F20CA
:104770000000808080800000001F202020201F007B
:10478000808000808000000080FFA12020110E00AA
:104790000000008080808000000E112020A0FF809B
:1047A000808080008080800020203F212000010048
:1047B000000080808080800000332424242419009D
:1047C000008080E0808000000000001F20200000AA
:1047D0008080000000808000001F202020103F20EB
:1047E000808080000080808000010E30080601007B
:1047F00080800080008080800F300C030C300F0020
:1048000000808000808080000020312E0E3120004A
:10481000808080000080808080818E70180601007A
:1048200000808080808080000021302C2221300098
:1048300000000000807C020200000000003F4040B9
:1048400000000000FF00000000000000FF0000006A
:104850000002027C800000000040403F0000000099
:104860000006010102020404000000000000000034
:104870003F000000646563006964000072756E7437
:10488000696D650068656C70000000006C69737488
:104890000000000068657800766F696420777269AF
:1048A00074655F6164647228753332206164647278
:1048B0002C7533322076616C29000000753332206C
:1048C000726561645F61646472287533322061646B
:1048D00064722900766F69642064656C61795F6D2C
:1048E0007328753136206E6D73290000766F696408
:1048F0002064656C61795F757328753332206E753D
:10490000732900002449000800000020980F0000CF
:1049100056020008104E0008980F0020500E0000AC
:104920008C190008011584A24A04E009010203045D
:10493000060708092916691A3502040608100A0331
:10494000050911FF118905C312E012F072F8073D45
:104950004428FF11AA44700B830138448292927458
:10496000018328087C44FF017D7D7D0449055C7D31
:1049700001FF97990279AB890B013669419949FA90
:104980000101011D38083F3F0303F31311011E010C
:10499000F1116181312D816111F1393B4141072CC8
:1049A00001C1211EAB21C114390139360738D33377
:1049B00003033F3F23E0E06A7FA81A7FBF4C06183D
:1049C000060A213640407F40401C1F204001AB209A
:1049D0001F14113A600E6C300C034601361C070799
:1049E000060178090404048444444484071C0484B4
:1049F000C405790E09110A791129400341070726D8
:104A000010181412112E0F1010100F0F331F102634
:104A1000081012120D22186B0D120A59295907019C
:104A2000605A8001013D20087F030C300C037F2574
:104A300038545458257C04047805223C40407C17A7
:104A4000FFAAAAAA28080A2CFF681E26494949324B
:104A5000101D020408100F100A03050911FF118927
:104A600005C312E012F072F8073D4428FF11AA4472
:104A7000700B830138448292927401831E7C44FF40
:104A8000017D01990559BB9A0102818A010B01360A
:104A900069419949FA010101204BF808011135F8E3
:104AA00018608035806018F82B202006312BE0102C
:104AB0001EAB10E014613937043E8868186A7FA77E
:104AC0001A7FBE4C0618060A114640407F40401C23
:104AD0001F204001AB201F141162603A602F014477
:104AE0001E40202020C0ED190729EA2A4005115A4E
:104AF000600E8918792959070149260C0A0A090C00
:104B0000360F0808080F2C080F08151D0809090E94
:104B10000719181C09090918190A592959070160A8
:104B20005A8001013D20087F030C300C037F25389B
:104B3000545458257C04047805223C40407C17FFDF
:104B4000AAAAAA28080A2CFF681E26494949321039
:104B50001D020408100F115008FFFFFEFCF8F06062
:104B600006150F0F0703011368081B206A041A6C4F
:104B7000041A6E0401195C02020242100A01109428
:104B800053321E3252100E147E4242427EC3198DA1
:104B900029010913C4100908CC4A49484ACC180F06
:104BA000117F88888482E03E1D12125292C40A143A
:104BB0007E2000101120C20C80023A2AEF3A42BA3D
:104BC0002F2A3A02180C04047E010804FF5555559B
:104BD0007F04021141151060028C15FE9292FE0EA8
:104BE00013F282FE82824011000B133F100A9C6078
:104BF00018073E4070000C1422322AA6A26221112E
:104C0000098101000E124222130B42827E02020A27
:104C1000122346162030AC6330080A1088C8A899C1
:104C20008E88A8C8885E2009672212128040300F43
:104C300005113F4040711488FF480008154CA495A9
:104C40008694A44C1A08391D0808080F0401152081
:104C50000918D654FF54D410FC0216FF1207140F83
:104C600004071A01430116140888780715FF186015
:104C70009008044B04023B0B14010220080C149111
:104C800089BDA725E5A525A57D014029412A0F3F1E
:104C90000914401EFC242424FF0419C101151F031C
:104CA0000101010709010315080E14F22EE20008A4
:104CB00015E8994A08EC9B48140702073C06050EC4
:104CC000040114000C15F912F82521FD11D511016C
:104CD000FF120F120719C31B0207C50114000C169F
:104CE00010FC03F810948B4A2A9610120F00091535
:104CF00003080A0A09050402080C14E222223E20D5
:104D000010EF088878083F197D2A08810A140420CA
:104D100015FE2222FE0E1408488808FF20350702DF
:104D200002070A1509BF211DF902F849010C17F9FC
:104D300001FFC01A02010A150B411542F22EE207CB
:104D400016F453F25A56F0080A140702070807012E
:104D50000701094018082C24A42425E62401021583
:104D60002C180808040304080F09010914E01410A2
:104D700011F2080816FE0A2A4A8949394000091624
:104D80000609080A0908090A000B16FE0202F29237
:104D900092F20202FE5B0F04010914C03E4042423F
:104DA000FE42040216402C080601460118080B14A6
:104DB0004048494A48F8484A494840160808040209
:104DC00001061901020408081370481B0884041A1C
:104DD0008C041A78041A94041A74041A7C04138537
:104DE000281B08BC081355401B089808133D201BBE
:104DF00008D4081A89082AEC38120E14208D361CA3
:104E000008D92E14122F1B08FD0C220429B401D935
:0400000508000149A5
:00000001FF
